:100000000C9462000C948A000C948A000C948A0070
:100010000C948A000C948A000C948A000C948A0038
:100020000C948A000C948A000C948A000C948A0028
:100030000C948A000C948A000C948A000C948A0018
:100040000C94EA060C948A000C94B8060C94920660
:100050000C948A000C948A000C948A000C948A00F8
:100060000C9434070C948A00000000002400270040
:100070002A0000000000250028002B0000000008D6
:10008000000201000003040700000000000000005F
:1000900000000000230026002900040404040404D6
:1000A0000404020202020202030303030303010227
:1000B00004081020408001020408102001020408F6
:1000C0001020620811241FBECFEFD8E0DEBFCDBFE5
:1000D00011E0A0E0B1E0EEE2F6E202C005900D9280
:1000E000AA39B107D9F723E0AAE9B1E001C01D920E
:1000F000A033B207E1F710E0C2E6D0E004C02197D8
:10010000FE010E94F60EC136D107C9F70E94BF0852
:100110000C9415130C940000CF92DF92EF92FF9293
:10012000CF93DF93B0912003882311F0AB2F01C050
:10013000A0E08091210390E0880F991F80579F4F86
:10014000C0902603D0902703E0902803F090290365
:1001500020E030E0FC01C591D491E881EB23A901B6
:1001600060E070E0EA130CC02F5F3F4F4C155D0557
:100170006E057F0578F33FEF2FEF8FEF9FEF03C002
:10018000322F252FCB01632F722FDF91CF91FF905C
:10019000EF90DF90CF900895FC01538D448D252F73
:1001A00030E0842F90E0821B930B541710F0CF9611
:1001B000089501970895FC01918D828D981761F043
:1001C000828DDF01A80FB11D5D968C91928D9F5F8E
:1001D0009F73928F90E008958FEF9FEF0895FC0139
:1001E000918D828D981731F0828DE80FF11D858DEC
:1001F00090E008958FEF9FEF0895FC01918D228D7F
:10020000892F90E0805C9F4F821B91098F73992703
:100210000895FC01848DDF01A80FB11DA35ABF4FC3
:100220002C91848D90E001968F739927848FA689F5
:10023000B7892C93A089B1898C9180648C93938D1C
:10024000848D981306C00288F389E02D80818F7D0C
:1002500080830895EF92FF920F931F93CF93DF93C4
:10026000EC0181E0888F9B8D8C8D981305C0E88907
:10027000F989808185FD24C0F62E0B8D10E00F5F7B
:100280001F4F0F731127E02E8C8DE8120CC00FB694
:1002900007FCFACFE889F989808185FFF5CFCE0187
:1002A0000E940901F1CF8B8DFE01E80FF11DE35A89
:1002B000FF4FF0820B8FEA89FB898081806207C043
:1002C000EE89FF896083E889F98980818064808371
:1002D00081E090E0DF91CF911F910F91FF90EF901F
:1002E0000895CF93DF93EC01888D8823C9F0EA89C4
:1002F000FB89808185FD05C0A889B9898C9186FD1F
:100300000FC00FB607FCF5CF808185FFF2CFA8891B
:10031000B9898C9185FFEDCFCE010E940901E7CF0D
:10032000DF91CF910895CF92DF92EF92FF920F93DA
:100330001F93CF93DF936C017A018B01C0E0D0E073
:10034000CE15DF0589F0D8016D918D01D601ED91B3
:10035000FC910190F081E02DC6010995892B11F4E3
:100360007E0102C02196ECCFC701DF91CF911F9192
:100370000F91FF90EF90DF90CF90089590E0FC01F7
:10038000E458FF4F3491FC01E255FF4F2491FC01EA
:10039000E656FF4FE491EE2309F43BC0332339F1D5
:1003A000333091F038F43130A9F0323001F584B5B2
:1003B0008F7D12C0373091F03830A1F03430B9F46D
:1003C000809180008F7D03C0809180008F77809323
:1003D00080000DC084B58F7784BD09C08091B000C6
:1003E0008F7703C08091B0008F7D8093B000F0E0E4
:1003F000EE0FFF1FEE58FF4FA591B4918FB7F89401
:10040000EC91611103C020952E2301C02E2B2C935B
:100410008FBF0895CF93DF9390E0FC01E255FF4F2B
:100420002491FC01E656FF4F8491882361F190E00E
:10043000880F991FFC01E859FF4FC591D491FC0129
:10044000EE58FF4FA591B491611109C09FB7F89480
:100450008881209582238883EC912E230BC0623003
:1004600061F49FB7F8943881822F80958323888325
:10047000EC912E2B2C939FBF06C08FB7F894E88188
:100480002E2B28838FBFDF91CF9108953FB7F8942B
:100490008091020290910302A0910402B0910502A2
:1004A00026B5A89B05C02F3F19F00196A11DB11DCF
:1004B0003FBFBA2FA92F982F8827820F911DA11D0A
:1004C000B11DBC01CD0142E0660F771F881F991F47
:1004D0004A95D1F708958F929F92AF92BF92CF9293
:1004E000DF92EF92FF926B017C010E9446024B016A
:1004F0005C01C114D104E104F104F1F00E94460250
:10050000DC01CB0188199909AA09BB09883E9340EF
:10051000A105B10570F321E0C21AD108E108F10884
:1005200088EE880E83E0981EA11CB11CC114D10472
:10053000E104F10419F7DDCFFF90EF90DF90CF9049
:10054000BF90AF909F908F900895CF92DF92EF92DF
:10055000FF920F931F93CF93DF93CDB7DEB7C054B5
:10056000D1400FB6F894DEBF0FBECDBF2FB7F894C1
:100570008091060290910702A0910802B0910902B1
:100580002FBF409122035091230360912403709167
:1005900025038C019D01041B150B260B370BB9019C
:1005A000A801403D57406105710518F480912A0368
:1005B000CAC08093220390932303A0932403B09393
:1005C000250310921D0310921C0310921B0310921E
:1005D0001A031092190362E080911E030E940A021E
:1005E00061E070E080E090E00E946B0261E0809149
:1005F0001E030E940A0260E080911E030E94BE0159
:1006000080911F038551823028F48BE291E101979C
:10061000F1F706C064E170E080E090E00E946B02B8
:1006200062E080911E030E940A0280912B0390E0F9
:100630008230910538F0880F991F880F991F059710
:100640000197F1F7F89480E00E948C006F3F7F4F94
:100650008F4F9F4F21F410922A03789441C081E07C
:100660000E948C006F3F7F4F8F4F9F4FA1F38E01F1
:100670000F5F1F4F6E018FEBC81A8EEFD80A7801FB
:1006800080E00E948C00F7016083718382839383F2
:1006900081E00E948C00F7016483758386839783D1
:1006A000F8E0EF0EF11CEC14FD0451F7789420E013
:1006B00030E0F8014081518162817381C480D5802E
:1006C000E680F7804F3FFFEF5F076F077F0731F04E
:1006D0008FEFC816D806E806F80621F410922A0310
:1006E00080E031C0F90183E0F595E7958A95E1F75F
:1006F000E75EFC4F8081880F4C155D056E057F0518
:1007000008F4816080832F5F3F4F085F1F4F2832BE
:10071000310579F620911D0330E040911903809155
:100720001A0390E0840F911D40911B03840F911DCB
:1007300040911C03840F911D99272817390771F6E2
:1007400081E080932A03C05CDE4F0FB6F894DEBFD1
:100750000FBECDBFDF91CF911F910F91FF90EF9012
:10076000DF90CF90089585ED8093BC008091BC0010
:1007700084FDFCCF1092300208954091DC01262FB9
:1007800030E0240F311D21323105DCF4209130029C
:100790002430C9F4FC0180E090E0861758F43091D1
:1007A000DC012191DC01A654BE4FA30FB11D2C9397
:1007B0000196F3CF8091DC01680F6093DC0180E04B
:1007C000089581E0089582E008950895E09132024D
:1007D00080913102E81730F4F0E0ED5CFD4F80814C
:1007E00090E008958FEF9FEF0895909132028091ED
:1007F0003102981750F4E92FF0E0ED5CFD4F2081B5
:1008000030E09F5F9093320202C02FEF3FEFC901AB
:1008100008958091310290E020913202821B91096B
:100820000895CF92DF92EF92FF920F931F93CF9391
:10083000DF937C01262F972F8A018091560288230F
:1008400091F0C62FD72F6E01C40ED51ECC15DD0535
:1008500071F06991D701ED91FC910190F081E02D4B
:10086000C7010995F3CF642F822F0E94BD03C801F1
:10087000DF91CF911F910F91FF90EF90DF90CF907C
:100880000895CF93DF931F92CDB7DEB76983209190
:1008900056022223D1F020915302203240F021E071
:1008A00030E0FC013383228380E090E015C080912A
:1008B0005402E82FF0E0E656FE4F998190838F5F57
:1008C000809354028093530205C061E0CE010196EB
:1008D0000E94BD0381E090E00F90DF91CF910895D9
:1008E0002091530290915502213208F049C0809125
:1008F00030028111FCCF32E03093300260932F023E
:100900003FEF30932E0210922D0220932C02AAE981
:10091000B1E04AE052E0FA013E2F341B321718F4DE
:100920003D913193F9CF10922B0220912B02990F18
:10093000922B90932B0290912A02913061F41092A5
:100940002A0290912B029093BB009091BC0093FDE2
:10095000F8CF95EC01C095EE9093BC0090913002D9
:100960009230E1F390912E029F3F79F080912E0218
:10097000803241F080912E02803331F084E005C056
:1009800081E003C082E001C083E010925402109223
:100990005302109256020895CF93DF93EC018981A0
:1009A0009A81DC01ED91FC910280F381E02D41E020
:1009B00050E00995019739F461E089819A810E949C
:1009C000700491E0811190E0892FDF91CF9108951B
:1009D000EF92FF920F931F93CF93DF93D90111965C
:1009E000EC01EC81FD81EA17FB0758F1E9019A015E
:1009F0007B018C01FC01808191E0909356028093F1
:100A000055021092540210925302209751F4B701EC
:100A1000C801DF91CF911F910F91FF90EF900C943F
:100A2000CC04452BA1F381819281DC01ED91FC91F5
:100A30000280F381E02DAE01B90109958C179D0765
:100A400031F380E0DF91CF911F910F91FF90EF90F4
:100A500008951F93CF93DF93EC011092320210920E
:100A6000310210925402109253021092300211E09F
:100A700010932F0210922A0261E082E10E94BE01CF
:100A800061E083E10E94BE018091B9008E7F809376
:100A9000B9008091B9008D7F8093B90088E480937C
:100AA000B80085E48093BC001B83888110935602B4
:100AB00080935502109254021092530261E0898192
:100AC0009A810E94700491E0811190E0892FDF915A
:100AD000CF911F910895089580E090E008952F929E
:100AE0003F924F925F926F927F928F929F92AF92BE
:100AF000BF92CF92DF92EF92FF920F931F93CF930B
:100B0000DF9300D000D01F92CDB7DEB7DC01149682
:100B1000ED91FC911597EF2B11F4312CB0C06901C8
:100B20005A018C01FC01808191E0909356028093E0
:100B300055021092540210925302CD010E94CC042F
:100B4000382E882351F3E12CF12C222423946FEFCB
:100B500055EE45EC83E3882E82E0982EEC14FD04DC
:100B600008F08DC0D8011496ED91FC9115977C91F9
:100B7000809130028111FCCF96012E193F09E217B6
:100B8000F30708F49F01722EB0E2B21710F490E25E
:100B9000792E20923002E1E0C601821B930BE81609
:100BA000F90608F4E0E0E0932F0260932E02109221
:100BB0002D028FEF870D80932C0220922B029091B3
:100BC0002B02872F880F892B80932B0280912A027A
:100BD000813069F410922A0280912B028093BB002D
:100BE0008091BC0083FDF8CF4093BC0002C05093BD
:100BF000BC00809130028130E1F380912D02871595
:100C000010F470902D02AAE0B2E0E3E3F2E08E2F40
:100C10008819871518F48D918193F9CF10923202BB
:100C200070923102E72DF0E0FD83EC83E217F307C9
:100C300009F073CF25014E0C5F1C3201C3018419EA
:100C400095092C813D8182179307B0F4D801119644
:100C50008D919C911297DC01ED91FC910284F385BA
:100C6000E02D4B835A8369830995F30181933F01FA
:100C700069815A814B81E2CFE20EF31E6FCF832D43
:100C80000F900F900F900F900F90DF91CF911F91C9
:100C90000F91FF90EF90DF90CF90BF90AF909F901B
:100CA0008F907F906F905F904F903F902F9008951E
:100CB000CF93DF9300D01F92CDB7DEB78B8322E0B6
:100CC00030E0AE014F5F5F4FBE016D5F7F4F80919F
:100CD0000003909101030E946F05898190E0982F95
:100CE00088272A81822B0F900F900F90DF91CF9150
:100CF00008950E943810DC01FC0101900020E9F702
:100D00003197E81BF90B9D01281B390B2E173F0764
:100D100040F42D913091C00035FFFCCF2093C600E8
:100D2000EBCF08951F920F920FB60F9211242F93BD
:100D30003F934F935F936F937F938F939F93AF9363
:100D4000BF93EF93FF9387E592E00E940901FF9123
:100D5000EF91BF91AF919F918F917F916F915F9133
:100D60004F913F912F910F900FBE0F901F901895AC
:100D70001F920F920FB60F9211242F938F939F9370
:100D8000EF93FF93E0916702F09168028081E09118
:100D90006D02F0916E0282FD12C09081809170020E
:100DA0008F5F8F7320917102821751F0E091700272
:100DB000F0E0E95AFD4F958F8093700201C0808169
:100DC000FF91EF919F918F912F910F900FBE0F90F8
:100DD0001F9018951F920F920FB60F9211242F9308
:100DE0003F938F939F93AF93BF938091060290910F
:100DF0000702A0910802B09109023091010223E09C
:100E0000230F2D3720F40196A11DB11D05C026E842
:100E1000230F0296A11DB11D2093010280930602AB
:100E200090930702A0930802B093090280910202F6
:100E300090910302A0910402B09105020196A11DB8
:100E4000B11D8093020290930302A0930402B09319
:100E50000502BF91AF919F918F913F912F910F907C
:100E60000FBE0F901F9018951F920F920FB60F9202
:100E700011242F933F934F935F936F937F938F939F
:100E80009F93AF93BF93EF93FF938091B900887FB7
:100E9000803609F49CC068F5883209F45BC090F490
:100EA000803109F454C038F4882309F4F6C088303E
:100EB00009F44DC0F6C0883109F44CC0803209F401
:100EC0005DC0EFC0803409F468C048F4803309F491
:100ED00055C0883309F0E5C080932E02D8C0803514
:100EE00009F44FC0883509F45DC0883409F0D9C0D1
:100EF000D6C0883909F4C7C0A8F4883709F467C098
:100F000038F4883609F463C0803709F460C0C9C07A
:100F1000883809F4B8C0803909F45FC0803809F016
:100F2000C0C05BC0803B09F486C038F4803A09F445
:100F300066C0883A09F47FC0B4C0803C09F4A7C0F9
:100F4000883C09F4A4C0883B09F48AC0AAC08091F7
:100F50002B0210C090912D0280912C02981770F5F1
:100F6000E0912D0281E08E0F80932D02F0E0E65F8C
:100F7000FD4F80818093BB0085EC86C080932E025C
:100F80008EC0E0912D0281E08E0F80932D02809122
:100F9000BB00F0E0E65FFD4F808390912D028091D1
:100FA0002C026EC0E0912D0281E08E0F80932D0205
:100FB0008091BB00F0E0E65FFD4F808380912F02BF
:100FC00081116DC081E080932A0284EA61C083E0D0
:100FD0008093300210920002CFCF809100028032C5
:100FE00008F051C0E091000281E08E0F8093000272
:100FF0008091BB00F0E0E052FE4F8083BDCF85ECD6
:101000008093BC001092300280910002803230F454
:10101000E0910002F0E0E052FE4F10826091000289
:1010200070E0E091DE01F091DF0180EE91E0099542
:101030001092000236C084E0809330021092DD01ED
:101040001092DC01E091DA01F091DB0109958091C9
:10105000DC01811105C081E08093DC011092BA01AE
:10106000E091DD0181E08E0F8093DD01F0E0E65438
:10107000FE4F80818093BB009091DD018091DC0167
:10108000981708F479CF85E88093BC000AC085ECF6
:101090008093BC001092300204C010922E020E9475
:1010A000B303FF91EF91BF91AF919F918F917F918A
:1010B0006F915F914F913F912F910F900FBE0F90C5
:1010C0001F901895E7E5F2E01382128288EE93E014
:1010D000A0E0B0E084839583A683B7832AE031E063
:1010E0003183208325EC30E03587248724EC30E001
:1010F0003787268720EC30E0318B208B21EC30E0E5
:10110000338B228B22EC30E0358B248B26EC30E0C5
:10111000378B268B118E128E138E148EE4EFF2E035
:101120001382128284839583A683B7838CE191E036
:1011300091838083A9E1B3E082E015968C931597A3
:1011400086E116968C931697E0EBF0E0E491179603
:10115000EC931797ECE9F0E0E4911896EC9318976C
:1011600040E85EE360E070E01D964D935D936D9303
:101170007C93509710920103109200030895CF932F
:10118000DF93CDB7DEB7C554D1090FB6F894DEBFF3
:101190000FBECDBF1092C50087E08093C400809140
:1011A000C10088608093C1008091C20086608093F6
:1011B000C20062E080911E030E940A022FB7F894D9
:1011C0008091060290910702A0910802B091090255
:1011D0002FBF805D9740A109B109809322039093AE
:1011E0002303A0932403B093250387E380932B0369
:1011F00083E08093020380910003909101030097A4
:1012000011F00E94A00F86E090E00E940B0F27E7EC
:10121000DC012C9324EF32E012963C932E9311972D
:1012200013961C92139720E230E015963C932E9370
:10123000149790930103809300030E94290588234B
:1012400009F43BC180ED88AF21E030E08E010F5FF3
:101250001F4FA801BE01685C7F4F809100039091F1
:1012600001030E946F058981853509F026C18AEA4C
:101270000E94580690930403809303038CEA0E9413
:10128000580690930603809305038EEA0E94580641
:10129000909308038093070380EB0E945806909375
:1012A00014038093130382EB0E9458069093160355
:1012B0008093150384EB0E94580690931803809343
:1012C000170386EB0E94580690930A038093090344
:1012D00088EB0E94580690930C0380930B038AEBD3
:1012E0000E94580690930E0380930D038CEB0E948E
:1012F00058069093100380930F038EEB0E945806BC
:1013000090931203809311030E94A5028823D9F1C0
:1013100080911F038B30B8F18D30B0F08551823051
:1013200090F56091190370E0762F662780911A037B
:10133000682B80E090E00E946E0D2DEC3CEC4CECB4
:101340005DE30E94FC0D1CC06091190370E080E019
:1013500090E00E94700D6B017C0160911A0370E0B7
:1013600080E090E00E94700D2DEC3CEC4CEC5DE3D5
:101370000E94FC0D9B01AC01C701B6010E94900CBC
:101380001B018C0104C0212C312C00EC1FE70E94B2
:10139000A502882309F496C080911F038C3009F4BC
:1013A0004AC018F48B30D1F06DC08551823008F0FE
:1013B00069C0B0901B036B2D6F7770E0762F6627A6
:1013C00080911C03682B80E090E00E946E0D2DEC54
:1013D0003CEC4CEC5DE30E94FC0D4BC060911B03A8
:1013E00070E080E090E00E946E0D4B015C01F09097
:1013F0001C03F7FE0AC09B01AC0160E070E080E8CE
:101400009FEB0E948F0C4B015C016F2D6F7070E0A1
:1014100080E090E00E94700D2DEC3CEC4CEC5DE324
:101420000E94FC0D9B01AC01C501B4010E94900C0F
:101430006B017C012DC0B0901B036B2D70E080E030
:1014400090E00E946E0D6B017C0160911C036F7037
:1014500070E080E090E00E94700D2DEC3CEC4CECD4
:101460005DE30E94FC0D9B01AC01C701B6010E9427
:10147000900C6B017C01B7FE0BC0F7FAF094F7F803
:10148000F09406C0C12CD12CF0ECEF2EFFE7FF2E1C
:10149000222D332D402F512F622D732D802F912F10
:1014A0000E94690E81110EC0A7019601C701B60105
:1014B0000E94690E8823A1F005C084E591E00E9496
:1014C0007B06FFCF8BE791E00E947B065FEF83E214
:1014D00094EF515080409040E1F700C0000014CFDD
:1014E0008EE28FAB84EF982E9EAA21E030E0AE0111
:1014F0004A5C5F4FBE01695C7F4F80910003909111
:1015000001030E94E80465E070E080E090E00E9442
:101510006B0286EF0E9458065C018091020382955F
:10152000880F880F807C8C5C8DAB9CAA21E030E01A
:10153000AE014C5C5F4FBE016B5C7F4F809100033E
:10154000909101030E94E80480910203811105C07B
:1015500065E070E080E090E012C0813029F468E03E
:1015600070E080E090E00BC0823029F46EE070E023
:1015700080E090E004C06AE170E080E090E00E94CA
:101580006B0286EF0E9458062C01612C712C762C80
:10159000652C542C442488EF8BAB21E030E0AE0165
:1015A0004F5F5F4FBE016D5C7F4F80910003909154
:1015B00001030E946F058981A3019201282B2296C5
:1015C0002CAF3DAF4EAF5FAF2297309102033DAFDE
:1015D000A50160E070E080911703909118039A01D3
:1015E000AB01281B390B41095109A0911503B0919A
:1015F00016030E94E30E4B015C01AFE0B594A79483
:1016000097948794AA95D1F760910F037091100376
:10161000CB01770FAA0BBB0BBC01CD01BBE0660F62
:10162000771F881F991FBA95D1F720911103309128
:1016300012032901330F66087708A5019401240DD0
:10164000351D461D571D0E94C40E820E931EA41EFA
:10165000B51E40EA841A4FE0940AA108B108A5011A
:101660009401C501B4010E94920E9B01AC018CE073
:1016700055954795379527958A95D1F729AF3AAF74
:101680004BAF5CAFE0910303F0910403A09107031B
:10169000B0910803A50194010E94EE0E2B013C01BC
:1016A0009DE075946794579447949A95D1F7A091CB
:1016B0000903B0910A0329AD3AAD4BAD5CAD0E9470
:1016C000EE0EBB2797FDB095AB2F840D951DA61D83
:1016D000B71D0296A11DB11D32E0B595A79597954E
:1016E00087953A95D1F79C01AD0130584F4F5F4F28
:1016F000A0911303B09114030E94E30E2B013C014F
:101700004FE076946794579447944A95D1F788E0D0
:1017100090E03DAD831B910922962CAD3DAD4EADC1
:101720005FAD229704C056954795379527958A95C2
:10173000D2F722962CAF3DAF4EAF5FAF2297CF01CD
:10174000FF0FAA0BBB0B9C01AD0162E0220F331F00
:10175000441F551F6A95D1F726962CAF3DAF4EAF6B
:101760005FAF2697A0910B03B0910C0329AD3AAD62
:101770004BAD5CAD0E94EE0E9B01AC017BE055953C
:101780004795379527957A95D1F729AF3AAF4BAF63
:101790005CAFA0910503B0910603A50194010E94DE
:1017A000EE0EDC01CB01EBE0B595A79597958795FB
:1017B000EA95D1F729AD3AAD4BAD5CAD820F931FE1
:1017C000A41FB51F26962CAD3DAD4EAD5FAD26973F
:1017D000820F931FA41FB51F0DAC04C0880F991F63
:1017E000AA1FBB1F0A94D2F7BC01CD016E5F7F4FC9
:1017F0008F4F9F4F24E030E040E050E00E94C40E45
:1018000022968CAD9DADAEADBFAD2297821B930BE2
:10181000A40BB50B9C01AD0160E573EC80E090E09A
:101820000DAC04C096958795779567950A94D2F785
:101830000E94920E97FD0BC0660F771F881F991F9D
:10184000A30192010E94A20E49015A010AC0A301FC
:1018500092010E94A20E49015A01880C991CAA1CEF
:10186000BB1C9927B7FC9A958B2D7A2D692D9B016E
:10187000AC010E94920E9B01AC01AEEDBBE00E9458
:10188000E30E2C01772457FC7094672CA3E4B3EE8D
:10189000A50194010E94F10EBB2797FDB095AB2FD7
:1018A000840D951DA61DB71D8153914FAF4FBF4F9E
:1018B00044E0B595A795979587954A95D1F7BC01D2
:1018C000CD01680D791D8A1D9B1D0E94700D20E0C1
:1018D00030E048EC52E40E94FC0C9F938F937F937E
:1018E0006F931F930F933F922F92FF92EF92DF928D
:1018F000CF92AAE2B1E0BF93AF9321E030E02C0F8A
:101900003D1F3F932F930E943D10CE0101960E94F0
:101910007B060FB6F894DEBF0FBECDBFD7CD5058B3
:10192000BB27AA270E94A70C0C94C20D0E94B40DDD
:1019300038F00E94BB0D20F039F49F3F19F426F4D3
:101940000C94B10D0EF4E095E7FB0C94AB0DE92F70
:101950000E94D30D58F3BA176207730784079507DF
:1019600020F079F4A6F50C94F50D0EF4E0950B2E0D
:10197000BA2FA02D0B01B90190010C01CA01A001E1
:101980001124FF27591B99F0593F50F4503E68F13C
:101990001A16F040A22F232F342F4427585FF3CF7D
:1019A000469537952795A795F0405395C9F77EF44E
:1019B0001F16BA0B620B730B840BBAF09150A1F097
:1019C000FF0FBB1F661F771F881FC2F70EC0BA0F1D
:1019D000621F731F841F48F4879577956795B795A5
:1019E000F7959E3F08F0B0CF9395880F08F09927A0
:1019F000EE0F9795879508950E94100D0C94C20DD7
:101A00000E94BB0D58F00E94B40D40F029F45F3FD6
:101A100029F00C94AB0D51110C94F60D0C94B10DF2
:101A20000E94D30D68F39923B1F3552391F3951BCD
:101A3000550BBB27AA2762177307840738F09F5FEF
:101A40005F4F220F331F441FAA1FA9F335D00E2E5C
:101A50003AF0E0E832D091505040E695001CCAF7C9
:101A60002BD0FE2F29D0660F771F881FBB1F26178C
:101A700037074807AB07B0E809F0BB0B802DBF0163
:101A8000FF2793585F4F3AF09E3F510578F00C9432
:101A9000AB0D0C94F60D5F3FE4F3983ED4F38695BE
:101AA00077956795B795F7959F5FC9F7880F911D53
:101AB0009695879597F90895E1E0660F771F881F3F
:101AC000BB1F621773078407BA0720F0621B730BF2
:101AD000840BBA0BEE1F88F7E0950895E89409C0CF
:101AE00097FB3EF490958095709561957F4F8F4F51
:101AF0009F4F9923A9F0F92F96E9BB279395F69567
:101B0000879577956795B795F111F8CFFAF4BB0FE4
:101B100011F460FF1BC06F5F7F4F8F4F9F4F16C048
:101B2000882311F096E911C0772321F09EE8872FD2
:101B3000762F05C0662371F096E8862F70E060E08E
:101B40002AF09A95660F771F881FDAF7880F969507
:101B5000879597F9089597F99F6780E870E060E0AE
:101B600008959FEF80EC089500240A941616170636
:101B700018060906089500240A941216130614067E
:101B800005060895092E0394000C11F4882352F0E1
:101B9000BB0F40F4BF2B11F460FF04C06F5F7F4F99
:101BA0008F4F9F4F089557FD9058440F551F59F080
:101BB0005F3F71F04795880F97FB991F61F09F3F3A
:101BC00079F087950895121613061406551FF2CF63
:101BD0004695F1DF08C0161617061806991FF1CFB3
:101BE00086957105610508940895E894BB276627DA
:101BF0007727CB0197F908950E940F0E0C94C20D20
:101C00000E94B40D38F00E94BB0D20F0952311F016
:101C10000C94AB0D0C94B10D11240C94F60D0E9494
:101C2000D30D70F3959FC1F3950F50E0551F629F40
:101C3000F001729FBB27F00DB11D639FAA27F00D25
:101C4000B11DAA1F649F6627B00DA11D661F829F4C
:101C50002227B00DA11D621F739FB00DA11D621F31
:101C6000839FA00D611D221F749F3327A00D611D4E
:101C7000231F849F600D211D822F762F6A2F112430
:101C80009F5750409AF0F1F088234AF0EE0FFF1F63
:101C9000BB1F661F771F881F91505040A9F79E3FBA
:101CA000510580F00C94AB0D0C94F60D5F3FE4F3FE
:101CB000983ED4F3869577956795B795F795E79510
:101CC0009F5FC1F7FE2B880F911D9695879597F919
:101CD00008950E946E0E880B990B0895990F0008C5
:101CE000550FAA0BE0E8FEEF16161706E807F907EE
:101CF000C0F012161306E407F50798F0621B730B89
:101D0000840B950B39F40A2661F0232B242B252B09
:101D100021F408950A2609F4A140A6958FEF811DAC
:101D2000811D0895DB018F939F930E94E30EBF9165
:101D3000AF91A29F800D911DA39F900DB29F900D1A
:101D400011240895A1E21A2EAA1BBB1BFD010DC090
:101D5000AA1FBB1FEE1FFF1FA217B307E407F5075B
:101D600020F0A21BB30BE40BF50B661F771F881F37
:101D7000991F1A9469F760957095809590959B01CD
:101D8000AC01BD01CF010895052E97FB1EF4009410
:101D90000E94DB0E57FD07D00E94A20E07FC03D065
:101DA0004EF40C94DB0E50954095309521953F4FA5
:101DB0004F4F5F4F089590958095709561957F4F37
:101DC0008F4F9F4F08950E94FC0EA59F900DB49FCA
:101DD000900DA49F800D911D11240895B7FF0C94C0
:101DE000E30E0E94E30E821B930B0895EE0FFF1F7C
:101DF0000590F491E02D0994A29FB001B39FC0011A
:101E0000A39F700D811D1124911DB29F700D811D26
:101E10001124911D0895CF93DF938230910510F422
:101E200082E090E0E0912E03F0912F0320E030E07B
:101E3000C0E0D0E0309711F1408151814817590737
:101E4000C0F04817590761F482819381209719F0F7
:101E50009B838A832BC090932F0380932E0326C0ED
:101E60002115310519F04217530718F49A01BE01E4
:101E7000DF01EF010280F381E02DDCCF2115310578
:101E800009F1281B390B2430310590F412968D91FD
:101E90009C9113976115710521F0FB019383828357
:101EA00004C090932F0380932E03FD01329644C00B
:101EB000FD01E20FF31F81939193225031092D937D
:101EC0003C933AC020912C0330912D03232B41F4F5
:101ED000209102013091030130932D0320932C03B4
:101EE00020910001309101012115310541F42DB7F8
:101EF0003EB74091040150910501241B350BE09140
:101F00002C03F0912D03E217F307A0F42E1B3F0BD7
:101F10002817390778F0AC014E5F5F4F241735075B
:101F200048F04E0F5F1F50932D0340932C03819375
:101F3000919302C0E0E0F0E0CF01DF91CF910895EE
:101F40000F931F93CF93DF93009709F48CC0FC018C
:101F500032971382128200912E0310912F030115E4
:101F6000110581F420813181820F931F20912C0370
:101F700030912D032817390779F5F0932D03E0935D
:101F80002C0371C0D80140E050E0AE17BF0750F4F9
:101F900012962D913C911397AD012115310509F150
:101FA000D901F3CF9D01DA013383228360817181EE
:101FB000860F971F8217930769F4EC0128813981F6
:101FC000260F371F2E5F3F4F318320838A819B81ED
:101FD00093838283452B29F4F0932F03E0932E0300
:101FE00042C01396FC93EE931297ED0149915991DB
:101FF0009E01240F351FE217F30771F48081918150
:10200000840F951F029611969C938E9382819381E3
:1020100013969C938E931297E0E0F0E0D80112960D
:102020008D919C911397009719F0F8018C01F6CFD0
:102030008D919C9198012E5F3F4F820F931F2091AD
:102040002C0330912D032817390769F4309729F4B0
:1020500010922F0310922E0302C01382128210934B
:102060002D0300932C03DF91CF911F910F910895C1
:1020700081E090E0F8940C941513AEE0B0E0E3E456
:10208000F0E10C94EC120D891E8986E08C831A8392
:1020900009838FEF9FE79E838D83AE01475E5F4F7D
:1020A0006F89788DCE0101960E9460102F8138854E
:1020B000F801E20FF31F10822E96E4E00C9408134F
:1020C000ACE0B0E0E6E6F0E10C94DE127C016B01DE
:1020D0008A01FC0117821682838181FFBDC1CE0176
:1020E00001964C01F7019381F60193FD859193FFD1
:1020F00081916F01882309F4ABC1853239F493FDD6
:10210000859193FF81916F01853229F4B70190E0A9
:102110000E944812E7CF512C312C20E02032A0F44D
:102120008B3269F030F4803259F0833269F42061E7
:102130002CC08D3239F0803339F4216026C0226002
:10214000246023C0286021C027FD27C030ED380F50
:102150003A3078F426FF06C0FAE05F9E300D112475
:10216000532E13C08AE0389E300D1124332E206286
:102170000CC08E3221F426FD6BC1206406C08C3663
:1021800011F4206802C0883641F4F60193FD859170
:1021900093FF81916F018111C1CF982F9F7D95543D
:1021A000933028F40C5F1F4FFFE3F9830DC0833693
:1021B00031F0833771F0833509F05BC022C0F8013C
:1021C000808189830E5F1F4F44244394512C540116
:1021D00015C03801F2E06F0E711CF801A080B180CB
:1021E00026FF03C0652D70E002C06FEF7FEFC501D1
:1021F0002C870E943D122C0183012C852F77222EE3
:1022000017C03801F2E06F0E711CF801A080B18098
:1022100026FF03C0652D70E002C06FEF7FEFC501A0
:102220002C870E9432122C012C852068222E8301DB
:1022300023FC1BC0832D90E048165906B0F4B7016B
:1022400080E290E00E9448123A94F4CFF50127FC16
:10225000859127FE81915F01B70190E00E944812AD
:1022600031103A94F1E04F1A51084114510471F7BA
:10227000E5C0843611F0893639F5F80127FF07C02B
:1022800060817181828193810C5F1F4F08C06081E2
:102290007181072E000C880B990B0E5F1F4F2F7654
:1022A000722E97FF09C090958095709561957F4F2C
:1022B0008F4F9F4F2068722E2AE030E0A4010E94C9
:1022C0008012A82EA81844C0853729F42F7EB22E7C
:1022D0002AE030E025C0F22FF97FBF2E8F36C1F003
:1022E00018F4883579F0B4C0803719F0883721F0B8
:1022F000AFC02F2F2061B22EB4FE0DC08B2D846095
:10230000B82E09C024FF0AC09F2F9660B92E06C0C0
:1023100028E030E005C020E130E002C020E132E0FA
:10232000F801B7FE07C060817181828193810C5FE3
:102330001F4F06C06081718180E090E00E5F1F4FEB
:10234000A4010E948012A82EA818FB2DFF777F2ED3
:1023500076FE0BC0372D3E7FA51450F474FE0AC0E4
:1023600072FC08C0372D3E7E05C0BA2C372D03C045
:10237000BA2C01C0B52C34FF0DC0FE01EA0DF11DD1
:102380008081803311F4397E09C032FF06C0B394D6
:10239000B39404C0832F867809F0B39433FD13C03F
:1023A00030FF06C05A2CB31418F4530C5B18B32C2E
:1023B000B31468F4B70180E290E03C870E944812B1
:1023C000B3943C85F5CFB31410F43B1801C0312C05
:1023D00034FF12C0B70180E390E03C870E944812AE
:1023E0003C8532FF17C031FD03C088E790E002C092
:1023F00088E590E0B7010CC0832F867859F031FF53
:1024000002C08BE201C080E237FD8DE2B70190E0AF
:102410000E944812A51438F4B70180E390E00E94AE
:1024200048125A94F7CFAA94F401EA0DF11D808165
:10243000B70190E00E944812A110F5CF332009F4B3
:1024400051CEB70180E290E00E9448123A94F6CF54
:10245000F7018681978102C08FEF9FEF2C96E2E112
:102460000C94FA12FC010590615070400110D8F7ED
:10247000809590958E0F9F1F0895FC0161507040CC
:1024800001900110D8F7809590958E0F9F1F0895A9
:102490000F931F93CF93DF93FB01238121FD03C093
:1024A0008FEF9FEF28C022FF16C0468157812481FD
:1024B00035814217530744F4A081B1819D012F5FFC
:1024C0003F4F318320838C93268137812F5F3F4F8D
:1024D0003783268310C0EB01092F182F0084F18564
:1024E000E02D0995892BE1F68E819F8101969F83CE
:1024F0008E83812F902FDF91CF911F910F9108959F
:10250000FA01AA27283051F1203181F1E8946F9324
:102510006E7F6E5F7F4F8F4F9F4FAF4FB1E03ED0CA
:10252000B4E03CD0670F781F891F9A1FA11D680F68
:10253000791F8A1F911DA11D6A0F711D811D911D9B
:10254000A11D20D009F468943F912AE0269F112410
:102550003019305D3193DEF6CF010895462F477074
:10256000405D4193B3E00FD0C9F7F6CF462F4F70CF
:10257000405D4A3318F0495D31FD4052419302D02D
:10258000A9F7EACFB4E0A6959795879577956795D3
:10259000BA95C9F700976105710508959B01AC01D3
:1025A0000A2E06945795479537952795BA95C9F7FA
:1025B000620F731F841F951FA01D08952F923F92D5
:1025C0004F925F926F927F928F929F92AF92BF9243
:1025D000CF92DF92EF92FF920F931F93CF93DF93EF
:1025E000CDB7DEB7CA1BDB0B0FB6F894DEBF0FBE4C
:1025F000CDBF09942A88398848885F846E847D8499
:102600008C849B84AA84B984C884DF80EE80FD809A
:102610000C811B81AA81B981CE0FD11D0FB6F89410
:0E262000DEBF0FBECDBFED010895F894FFCFD1
:10262E00000030038000000000002A019301CC005E
:10263E007101FD00DB00EF000000000041041104F9
:10264E006C05E5030904F503E60354656D703A2045
:10265E00252E326620430A48756D3A20252E3266A5
:10266E0025250A50726573733A20252E326620682E
:10267E0050610A004572726F7220616C20696E693A
:10268E006369616C697A617220656C2073656E7323
:10269E006F7220424D503138300A004572726F729F
:1026AE0020616C206C65657220656C2073656E739D
:0A26BE006F722044485432320A00C3
:00000001FF
